{
  "address": "0xe4B83e57b4E099DaDb7d9Ef56A7a02565E211087",
  "abi": [
    {
      "inputs": [
        {
          "internalType": "address",
          "name": "initialOwner",
          "type": "address"
        },
        {
          "internalType": "uint256",
          "name": "bankCapUSD",
          "type": "uint256"
        },
        {
          "internalType": "uint256",
          "name": "withdrawalLimitUSD",
          "type": "uint256"
        }
      ],
      "stateMutability": "nonpayable",
      "type": "constructor"
    },
    {
      "inputs": [
        {
          "internalType": "address",
          "name": "target",
          "type": "address"
        }
      ],
      "name": "AddressEmptyCode",
      "type": "error"
    },
    {
      "inputs": [
        {
          "internalType": "address",
          "name": "account",
          "type": "address"
        }
      ],
      "name": "AddressInsufficientBalance",
      "type": "error"
    },
    {
      "inputs": [
        {
          "internalType": "uint256",
          "name": "cap",
          "type": "uint256"
        },
        {
          "internalType": "uint256",
          "name": "requested",
          "type": "uint256"
        }
      ],
      "name": "BankCapExceeded",
      "type": "error"
    },
    {
      "inputs": [],
      "name": "FailedInnerCall",
      "type": "error"
    },
    {
      "inputs": [
        {
          "internalType": "uint256",
          "name": "available",
          "type": "uint256"
        },
        {
          "internalType": "uint256",
          "name": "requested",
          "type": "uint256"
        }
      ],
      "name": "InsufficientBalance",
      "type": "error"
    },
    {
      "inputs": [],
      "name": "InvalidAddress",
      "type": "error"
    },
    {
      "inputs": [],
      "name": "InvalidToken",
      "type": "error"
    },
    {
      "inputs": [
        {
          "internalType": "address",
          "name": "owner",
          "type": "address"
        }
      ],
      "name": "OwnableInvalidOwner",
      "type": "error"
    },
    {
      "inputs": [
        {
          "internalType": "address",
          "name": "account",
          "type": "address"
        }
      ],
      "name": "OwnableUnauthorizedAccount",
      "type": "error"
    },
    {
      "inputs": [
        {
          "internalType": "address",
          "name": "token",
          "type": "address"
        }
      ],
      "name": "SafeERC20FailedOperation",
      "type": "error"
    },
    {
      "inputs": [],
      "name": "TransferFailed",
      "type": "error"
    },
    {
      "inputs": [
        {
          "internalType": "uint256",
          "name": "limit",
          "type": "uint256"
        },
        {
          "internalType": "uint256",
          "name": "requested",
          "type": "uint256"
        }
      ],
      "name": "WithdrawalLimitExceeded",
      "type": "error"
    },
    {
      "inputs": [],
      "name": "ZeroAmount",
      "type": "error"
    },
    {
      "anonymous": false,
      "inputs": [
        {
          "indexed": false,
          "internalType": "uint256",
          "name": "newCap",
          "type": "uint256"
        }
      ],
      "name": "BankCapUpdated",
      "type": "event"
    },
    {
      "anonymous": false,
      "inputs": [
        {
          "indexed": true,
          "internalType": "address",
          "name": "user",
          "type": "address"
        },
        {
          "indexed": true,
          "internalType": "address",
          "name": "token",
          "type": "address"
        },
        {
          "indexed": false,
          "internalType": "uint256",
          "name": "amount",
          "type": "uint256"
        },
        {
          "indexed": false,
          "internalType": "uint256",
          "name": "usdValue",
          "type": "uint256"
        }
      ],
      "name": "Deposited",
      "type": "event"
    },
    {
      "anonymous": false,
      "inputs": [
        {
          "indexed": true,
          "internalType": "address",
          "name": "previousOwner",
          "type": "address"
        },
        {
          "indexed": true,
          "internalType": "address",
          "name": "newOwner",
          "type": "address"
        }
      ],
      "name": "OwnershipTransferred",
      "type": "event"
    },
    {
      "anonymous": false,
      "inputs": [
        {
          "indexed": false,
          "internalType": "uint256",
          "name": "newLimit",
          "type": "uint256"
        }
      ],
      "name": "WithdrawalLimitUpdated",
      "type": "event"
    },
    {
      "anonymous": false,
      "inputs": [
        {
          "indexed": true,
          "internalType": "address",
          "name": "user",
          "type": "address"
        },
        {
          "indexed": true,
          "internalType": "address",
          "name": "token",
          "type": "address"
        },
        {
          "indexed": false,
          "internalType": "uint256",
          "name": "amount",
          "type": "uint256"
        },
        {
          "indexed": false,
          "internalType": "uint256",
          "name": "usdValue",
          "type": "uint256"
        }
      ],
      "name": "Withdrawn",
      "type": "event"
    },
    {
      "inputs": [],
      "name": "BANK_CAP_USD",
      "outputs": [
        {
          "internalType": "uint256",
          "name": "",
          "type": "uint256"
        }
      ],
      "stateMutability": "view",
      "type": "function"
    },
    {
      "inputs": [],
      "name": "WITHDRAWAL_LIMIT_USD",
      "outputs": [
        {
          "internalType": "uint256",
          "name": "",
          "type": "uint256"
        }
      ],
      "stateMutability": "view",
      "type": "function"
    },
    {
      "inputs": [
        {
          "internalType": "address",
          "name": "tokenAddress",
          "type": "address"
        },
        {
          "internalType": "uint256",
          "name": "amount",
          "type": "uint256"
        }
      ],
      "name": "deposit",
      "outputs": [],
      "stateMutability": "payable",
      "type": "function"
    },
    {
      "inputs": [
        {
          "internalType": "address",
          "name": "tokenAddress",
          "type": "address"
        },
        {
          "internalType": "address",
          "name": "user",
          "type": "address"
        }
      ],
      "name": "getBalance",
      "outputs": [
        {
          "internalType": "uint256",
          "name": "",
          "type": "uint256"
        }
      ],
      "stateMutability": "view",
      "type": "function"
    },
    {
      "inputs": [],
      "name": "getTotalDepositsInUSD",
      "outputs": [
        {
          "internalType": "uint256",
          "name": "",
          "type": "uint256"
        }
      ],
      "stateMutability": "view",
      "type": "function"
    },
    {
      "inputs": [
        {
          "internalType": "address",
          "name": "tokenAddress",
          "type": "address"
        },
        {
          "internalType": "uint256",
          "name": "amount",
          "type": "uint256"
        }
      ],
      "name": "getUSDValue",
      "outputs": [
        {
          "internalType": "uint256",
          "name": "",
          "type": "uint256"
        }
      ],
      "stateMutability": "view",
      "type": "function"
    },
    {
      "inputs": [],
      "name": "owner",
      "outputs": [
        {
          "internalType": "address",
          "name": "",
          "type": "address"
        }
      ],
      "stateMutability": "view",
      "type": "function"
    },
    {
      "inputs": [
        {
          "internalType": "address",
          "name": "tokenAddress",
          "type": "address"
        }
      ],
      "name": "recoverTokens",
      "outputs": [],
      "stateMutability": "nonpayable",
      "type": "function"
    },
    {
      "inputs": [],
      "name": "renounceOwnership",
      "outputs": [],
      "stateMutability": "nonpayable",
      "type": "function"
    },
    {
      "inputs": [],
      "name": "totalDepositCount",
      "outputs": [
        {
          "internalType": "uint256",
          "name": "",
          "type": "uint256"
        }
      ],
      "stateMutability": "view",
      "type": "function"
    },
    {
      "inputs": [
        {
          "internalType": "address",
          "name": "",
          "type": "address"
        }
      ],
      "name": "totalDeposits",
      "outputs": [
        {
          "internalType": "uint256",
          "name": "",
          "type": "uint256"
        }
      ],
      "stateMutability": "view",
      "type": "function"
    },
    {
      "inputs": [],
      "name": "totalWithdrawalCount",
      "outputs": [
        {
          "internalType": "uint256",
          "name": "",
          "type": "uint256"
        }
      ],
      "stateMutability": "view",
      "type": "function"
    },
    {
      "inputs": [
        {
          "internalType": "address",
          "name": "newOwner",
          "type": "address"
        }
      ],
      "name": "transferOwnership",
      "outputs": [],
      "stateMutability": "nonpayable",
      "type": "function"
    },
    {
      "inputs": [
        {
          "internalType": "address",
          "name": "tokenAddress",
          "type": "address"
        },
        {
          "internalType": "uint256",
          "name": "amount",
          "type": "uint256"
        }
      ],
      "name": "withdraw",
      "outputs": [],
      "stateMutability": "nonpayable",
      "type": "function"
    },
    {
      "stateMutability": "payable",
      "type": "receive"
    }
  ],
  "transactionHash": "0x6e4aa857126e9a71a54df0d05cca09af001350614c2b27e6ccbfd3565865867d",
  "args": [
    "0x3872A24474167c34006e0F39140ABF0A2BcDebe3",
    100000000000000,
    1000000000
  ],
  "numDeployments": 1,
  "solcInputHash": "cf686120d96bc52d8389d20911a295c1",
  "bytecode": "0x60c060405234801561001057600080fd5b5060405161125438038061125483398101604081905261002f91610179565b826001600160a01b03811661005f57604051631e4fbdf760e01b8152600060048201526024015b60405180910390fd5b61006881610129565b506001600160a01b0383166100bf5760405162461bcd60e51b815260206004820152601560248201527f496e76616c6964206f776e6572206164647265737300000000000000000000006044820152606401610056565b6000821161011a5760405162461bcd60e51b815260206004820152602260248201527f42616e6b20636170206d7573742062652067726561746572207468616e207a65604482015261726f60f01b6064820152608401610056565b60a091909152608052506101bc565b600080546001600160a01b038381166001600160a01b0319831681178455604051919092169283917f8be0079c531659141344cd1fd0a4f28419497f9722a3daafe3b4186f6b6457e09190a35050565b60008060006060848603121561018e57600080fd5b83516001600160a01b03811681146101a557600080fd5b602085015160409095015190969495509392505050565b60805160a0516110576101fd600039600081816101bb0152818161056e01526105a8015260008181610121015281816108b801526108ed01526110576000f3fe6080604052600436106100e15760003560e01c80638da5cb5b1161007f578063e940325611610059578063e94032561461023b578063f2fde38b14610268578063f3fef3a314610288578063fa76dcf2146102a857600080fd5b80638da5cb5b146101dd578063d4fac45d14610205578063d63438671461022557600080fd5b806347e7ef24116100bb57806347e7ef241461016b5780635af0d79a1461017e578063715018a614610194578063893b7e95146101a957600080fd5b806316114acd146100ed5780631936d8901461010f5780633377120c1461015657600080fd5b366100e857005b600080fd5b3480156100f957600080fd5b5061010d610108366004610e47565b6102c8565b005b34801561011b57600080fd5b506101437f000000000000000000000000000000000000000000000000000000000000000081565b6040519081526020015b60405180910390f35b34801561016257600080fd5b50610143610442565b61010d610179366004610e62565b610515565b34801561018a57600080fd5b5061014360045481565b3480156101a057600080fd5b5061010d610808565b3480156101b557600080fd5b506101437f000000000000000000000000000000000000000000000000000000000000000081565b3480156101e957600080fd5b506000546040516001600160a01b03909116815260200161014d565b34801561021157600080fd5b50610143610220366004610e8c565b61081c565b34801561023157600080fd5b5061014360035481565b34801561024757600080fd5b50610143610256366004610e47565b60016020526000908152604090205481565b34801561027457600080fd5b5061010d610283366004610e47565b610849565b34801561029457600080fd5b5061010d6102a3366004610e62565b610887565b3480156102b457600080fd5b506101436102c3366004610e62565b610aea565b6102d0610ba6565b60006001600160a01b03821661039657504760006102f66000546001600160a01b031690565b6001600160a01b03168260405160006040518083038185875af1925050503d8060008114610340576040519150601f19603f3d011682016040523d82523d6000602084013e610345565b606091505b50509050806103915760405162461bcd60e51b8152602060048201526013602482015272115512081d1c985b9cd9995c8819985a5b1959606a1b60448201526064015b60405180910390fd5b505050565b6001600160a01b038216600081815260016020526040908190205490516370a0823160e01b81523060048201528492906370a0823190602401602060405180830381865afa1580156103ec573d6000803e3d6000fd5b505050506040513d601f19601f820116820180604052508101906104109190610ebf565b61041a9190610eee565b91506103916104316000546001600160a01b031690565b6001600160a01b0383169084610bd3565b60008073694aa1769357215de4fac081bf1f309adc3253066001600160a01b031663feaf968c6040518163ffffffff1660e01b815260040160a060405180830381865afa158015610497573d6000803e3d6000fd5b505050506040513d601f19601f820116820180604052508101906104bb9190610f1b565b5050600080805260016020527fa6eef7e35abe7026729641147f7915573c7e97b47efa546f5f6e3230263bcb49549294509250670de0b6b3a76400009161050491508490610f6b565b61050e9190610f82565b9392505050565b8060000361053657604051631f2a200560e01b815260040160405180910390fd5b60006105428383610aea565b6001600160a01b0384166000908152600160205260408120549192509061056a908490610fa4565b90507f000000000000000000000000000000000000000000000000000000000000000082610596610442565b6105a09190610fa4565b11156105fc577f0000000000000000000000000000000000000000000000000000000000000000826105d0610442565b6105da9190610fa4565b6040516331728a0560e01b815260048101929092526024820152604401610388565b6001600160a01b038416610638578234146106335760405163cf47918160e01b815260048101849052346024820152604401610388565b610756565b6040516370a0823160e01b815230600482015284906000906001600160a01b038316906370a0823190602401602060405180830381865afa158015610681573d6000803e3d6000fd5b505050506040513d601f19601f820116820180604052508101906106a59190610ebf565b90506106bc6001600160a01b038316333088610c32565b6040516370a0823160e01b81523060048201526000906001600160a01b038416906370a0823190602401602060405180830381865afa158015610703573d6000803e3d6000fd5b505050506040513d601f19601f820116820180604052508101906107279190610ebf565b9050856107348383610eee565b14610752576107438282610eee565b955061074f8787610aea565b94505b5050505b6001600160a01b038416600090815260026020908152604080832033845290915281208054859290610789908490610fa4565b90915550506001600160a01b038416600090815260016020526040812082905560038054916107b783610fb7565b909155505060408051848152602081018490526001600160a01b0386169133917ff5681f9d0db1b911ac18ee83d515a1cf1051853a9eae418316a2fdf7dea427c5910160405180910390a350505050565b610810610ba6565b61081a6000610c71565b565b6001600160a01b038083166000908152600260209081526040808320938516835292905220545b92915050565b610851610ba6565b6001600160a01b03811661087b57604051631e4fbdf760e01b815260006004820152602401610388565b61088481610c71565b50565b806000036108a857604051631f2a200560e01b815260040160405180910390fd5b60006108b48383610aea565b90507f000000000000000000000000000000000000000000000000000000000000000081111561092057604051631728bc5b60e31b81527f0000000000000000000000000000000000000000000000000000000000000000600482015260248101829052604401610388565b6001600160a01b0383166000908152600260209081526040808320338452909152902054821115610994576001600160a01b03831660009081526002602090815260408083203384529091529081902054905163cf47918160e01b8152600481019190915260248101839052604401610388565b6001600160a01b0383166000908152600260209081526040808320338452909152812080548492906109c7908490610eee565b90915550506001600160a01b038316600090815260016020526040812080548492906109f4908490610eee565b909155505060048054906000610a0983610fb7565b90915550506001600160a01b038316610a8b57604051600090339084908381818185875af1925050503d8060008114610a5e576040519150601f19603f3d011682016040523d82523d6000602084013e610a63565b606091505b5050905080610a85576040516312171d8360e31b815260040160405180910390fd5b50610a9f565b610a9f6001600160a01b0384163384610bd3565b60408051838152602081018390526001600160a01b0385169133917f91fb9d98b786c57d74c099ccd2beca1739e9f6a81fb49001ca465c4b7591bbe2910160405180910390a3505050565b60006001600160a01b038316610b9f57600073694aa1769357215de4fac081bf1f309adc3253066001600160a01b031663feaf968c6040518163ffffffff1660e01b815260040160a060405180830381865afa158015610b4e573d6000803e3d6000fd5b505050506040513d601f19601f82011682018060405250810190610b729190610f1b565b505050915050670de0b6b3a76400008184610b8d9190610f6b565b610b979190610f82565b915050610843565b5080610843565b6000546001600160a01b0316331461081a5760405163118cdaa760e01b8152336004820152602401610388565b6040516001600160a01b0383811660248301526044820183905261039191859182169063a9059cbb906064015b604051602081830303815290604052915060e01b6020820180516001600160e01b038381831617835250505050610cc1565b6040516001600160a01b038481166024830152838116604483015260648201839052610c6b9186918216906323b872dd90608401610c00565b50505050565b600080546001600160a01b038381166001600160a01b0319831681178455604051919092169283917f8be0079c531659141344cd1fd0a4f28419497f9722a3daafe3b4186f6b6457e09190a35050565b6000610cd66001600160a01b03841683610d24565b90508051600014158015610cfb575080806020019051810190610cf99190610fd0565b155b1561039157604051635274afe760e01b81526001600160a01b0384166004820152602401610388565b606061050e8383600084600080856001600160a01b03168486604051610d4a9190610ff2565b60006040518083038185875af1925050503d8060008114610d87576040519150601f19603f3d011682016040523d82523d6000602084013e610d8c565b606091505b5091509150610d9c868383610da6565b9695505050505050565b606082610dbb57610db682610e02565b61050e565b8151158015610dd257506001600160a01b0384163b155b15610dfb57604051639996b31560e01b81526001600160a01b0385166004820152602401610388565b508061050e565b805115610e125780518082602001fd5b604051630a12f52160e11b815260040160405180910390fd5b80356001600160a01b0381168114610e4257600080fd5b919050565b600060208284031215610e5957600080fd5b61050e82610e2b565b60008060408385031215610e7557600080fd5b610e7e83610e2b565b946020939093013593505050565b60008060408385031215610e9f57600080fd5b610ea883610e2b565b9150610eb660208401610e2b565b90509250929050565b600060208284031215610ed157600080fd5b5051919050565b634e487b7160e01b600052601160045260246000fd5b8181038181111561084357610843610ed8565b805169ffffffffffffffffffff81168114610e4257600080fd5b600080600080600060a08688031215610f3357600080fd5b610f3c86610f01565b9450602086015193506040860151925060608601519150610f5f60808701610f01565b90509295509295909350565b808202811582820484141761084357610843610ed8565b600082610f9f57634e487b7160e01b600052601260045260246000fd5b500490565b8082018082111561084357610843610ed8565b600060018201610fc957610fc9610ed8565b5060010190565b600060208284031215610fe257600080fd5b8151801515811461050e57600080fd5b6000825160005b818110156110135760208186018101518583015201610ff9565b50600092019182525091905056fea264697066735822122001c77ee46283ef9beb0321ead3b5128ae74b86ea469cdf62670582c69fa6933e64736f6c63430008140033",
  "devdoc": {
    "details": "A secure bank contract that allows users to deposit and withdraw ETH and ERC20 tokens with transaction limits and total deposit caps.",
    "errors": {
      "AddressEmptyCode(address)": [
        {
          "details": "There's no code at `target` (it is not a contract)."
        }
      ],
      "AddressInsufficientBalance(address)": [
        {
          "details": "The ETH balance of the account is not enough to perform the operation."
        }
      ],
      "FailedInnerCall()": [
        {
          "details": "A call to an address target failed. The target may have reverted."
        }
      ],
      "OwnableInvalidOwner(address)": [
        {
          "details": "The owner is not a valid owner account. (eg. `address(0)`)"
        }
      ],
      "OwnableUnauthorizedAccount(address)": [
        {
          "details": "The caller account is not authorized to perform an operation."
        }
      ],
      "SafeERC20FailedOperation(address)": [
        {
          "details": "An operation with an ERC20 token failed."
        }
      ]
    },
    "kind": "dev",
    "methods": {
      "constructor": {
        "details": "Constructor sets the initial owner, bank cap, and withdrawal limit",
        "params": {
          "bankCapUSD": "Maximum total deposits allowed in USD (8 decimals)",
          "initialOwner": "Address of the contract owner",
          "withdrawalLimitUSD": "Maximum withdrawal per transaction in USD (8 decimals)"
        }
      },
      "deposit(address,uint256)": {
        "details": "Deposit ETH or ERC20 tokens into the bank",
        "params": {
          "amount": "Amount to deposit (in wei or token units)",
          "tokenAddress": "Address of the token to deposit (address(0) for ETH)"
        }
      },
      "getBalance(address,address)": {
        "details": "Get the balance of a specific token for a user",
        "params": {
          "tokenAddress": "Address of the token (address(0) for ETH)",
          "user": "Address of the user"
        },
        "returns": {
          "_0": "User's balance of the specified token"
        }
      },
      "getTotalDepositsInUSD()": {
        "details": "Get the total value of all deposits in USD (8 decimals)",
        "returns": {
          "_0": "Total value in USD"
        }
      },
      "getUSDValue(address,uint256)": {
        "details": "Get the USD value of an amount of tokens",
        "params": {
          "amount": "Amount of tokens to get value for",
          "tokenAddress": "Address of the token (address(0) for ETH)"
        },
        "returns": {
          "_0": "Value in USD (8 decimals)"
        }
      },
      "owner()": {
        "details": "Returns the address of the current owner."
      },
      "recoverTokens(address)": {
        "details": "Emergency withdraw tokens sent to the contract by mistake",
        "params": {
          "tokenAddress": "Address of the token to recover"
        }
      },
      "renounceOwnership()": {
        "details": "Leaves the contract without owner. It will not be possible to call `onlyOwner` functions. Can only be called by the current owner. NOTE: Renouncing ownership will leave the contract without an owner, thereby disabling any functionality that is only available to the owner."
      },
      "transferOwnership(address)": {
        "details": "Transfers ownership of the contract to a new account (`newOwner`). Can only be called by the current owner."
      },
      "withdraw(address,uint256)": {
        "details": "Withdraw tokens from the bank",
        "params": {
          "amount": "Amount to withdraw (in wei or token units)",
          "tokenAddress": "Address of the token to withdraw (address(0) for ETH)"
        }
      }
    },
    "title": "KipuBankV2",
    "version": 1
  },
  "userdoc": {
    "kind": "user",
    "methods": {},
    "version": 1
  },
  "storageLayout": {
    "storage": [
      {
        "astId": 8,
        "contract": "contracts/KipuBankV2.sol:KipuBankV2",
        "label": "_owner",
        "offset": 0,
        "slot": "0",
        "type": "t_address"
      },
      {
        "astId": 901,
        "contract": "contracts/KipuBankV2.sol:KipuBankV2",
        "label": "totalDeposits",
        "offset": 0,
        "slot": "1",
        "type": "t_mapping(t_address,t_uint256)"
      },
      {
        "astId": 907,
        "contract": "contracts/KipuBankV2.sol:KipuBankV2",
        "label": "_balances",
        "offset": 0,
        "slot": "2",
        "type": "t_mapping(t_address,t_mapping(t_address,t_uint256))"
      },
      {
        "astId": 909,
        "contract": "contracts/KipuBankV2.sol:KipuBankV2",
        "label": "totalDepositCount",
        "offset": 0,
        "slot": "3",
        "type": "t_uint256"
      },
      {
        "astId": 911,
        "contract": "contracts/KipuBankV2.sol:KipuBankV2",
        "label": "totalWithdrawalCount",
        "offset": 0,
        "slot": "4",
        "type": "t_uint256"
      }
    ],
    "types": {
      "t_address": {
        "encoding": "inplace",
        "label": "address",
        "numberOfBytes": "20"
      },
      "t_mapping(t_address,t_mapping(t_address,t_uint256))": {
        "encoding": "mapping",
        "key": "t_address",
        "label": "mapping(address => mapping(address => uint256))",
        "numberOfBytes": "32",
        "value": "t_mapping(t_address,t_uint256)"
      },
      "t_mapping(t_address,t_uint256)": {
        "encoding": "mapping",
        "key": "t_address",
        "label": "mapping(address => uint256)",
        "numberOfBytes": "32",
        "value": "t_uint256"
      },
      "t_uint256": {
        "encoding": "inplace",
        "label": "uint256",
        "numberOfBytes": "32"
      }
    }
  }
}